:020000041000EA
:1000000000B50C4B00219960022159610A49196021
:100010000A490B480160002159600121996001BC27
:10002000002800D0004707480749086003C880F34C
:10003000088808470000001800031F00180200038A
:10004000F40000180001001008ED00E000000000BE
:1000500000000000000000000000000000000000A0
:100060000000000000000000000000000000000090
:100070000000000000000000000000000000000080
:100080000000000000000000000000000000000070
:100090000000000000000000000000000000000060
:1000A0000000000000000000000000000000000050
:1000B0000000000000000000000000000000000040
:1000C0000000000000000000000000000000000030
:1000D0000000000000000000000000000000000020
:1000E0000000000000000000000000000000000010
:1000F000000000000000000000000000EA224C5D4B
:1001000000200420F7010010C3010010C5010010F9
:10011000C1010010C1010010C1010010C101001097
:10012000C1010010C1010010C1010010C701001081
:10013000C1010010C1010010C9010010CB01001065
:10014000CD010010CD010010CD010010CD01001037
:10015000CD010010CD010010CD010010CD01001027
:10016000CD010010CD010010CD010010CD01001017
:10017000CD010010CD010010CD010010CD01001007
:10018000CD010010CD010010CD010010CD010010F7
:10019000CD010010CD010010CD010010CD010010E7
:1001A000CD010010CD010010CD010010CD010010D7
:1001B000CD010010CD010010CD010010CD010010C7
:1001C00000BE00BE00BE00BE00BE00BE00F04BF888
:1001D000103800BEF2EB88713850001058500010F3
:1001E0003402001090A31AE700202149086006C8D5
:1001F00081F3088810471F48006800282FD10DA4FC
:100200000ECC002902D000F012F8F9E71A491B4A77
:10021000002000E001C19142FCD1194988471949E9
:1002200088471949884700BEFDE701C901C29A42C3
:10023000FBD3704758500010C0000020AC020020D3
:10024000445200100000042000000420445200101A
:1002500000100420001004200000000070470B482C
:1002600002F098FE0047EFF30580C0B2704700002F
:1002700008ED00E0000000D0B0020020740600206D
:100280003D150010890400100D160010575600008F
:1002900006005250ABB36053DC4F001006005250C2
:1002A000861C0302EC4F0010060052505422A29DFF
:1002B000F84F001005005250DE65F46844520010FB
:1002C000F8B5C04610B5064C2378002B07D1054B76
:1002D000002B02D0044800E000BF0123237010BDB2
:1002E000B00300200000000050410010044B10B586
:1002F000002B03D00349044800E000BF10BDC046F6
:1003000000000000B40300205041001070B588B018
:1003100002AB002202920392049210320392184A16
:10032000049205AA13CB13C20224072C25D804215A
:10033000200000F0BFF81D2C19D8610807221140D9
:10034000104D8A005018830000205851AC46634479
:100350009860D8600798019018610698586001234A
:1003600005980343521891004B510134DDE7064BC9
:10037000064A4E21064801F04DF908B070BDC0464E
:10038000FFFF000000000540504100100442001033
:100390005C41001010B5022323E02C21214B224A9E
:1003A000FF31224801F036F91E4B214A4E211F48E9
:1003B00001F030F91B4B1F4A5A211C4801F02AF961
:1003C0001D4B1E4A4521194801F024F9040023E081
:1003D0001B481468614001408020400102431160C5
:1003E0000133072B1DD85A1E92001649895A1D2B1E
:1003F000D3D8D9D85808072202401D2BDAD80120BB
:100400001840072ADCD89400A418A2000E4CA44679
:1004100062440028DAD01024A1400028D8D00B482C
:10042000D7E710BD50410010D84100105C410010CA
:1004300004420010C4410010B4410010EC4100100F
:10044000FFFF0000D00100200C0005400000FFFF6E
:1004500010B5084BDC69072306E05A1E05499000D9
:1004600040589B0058501300002BF6D1014B1C60E4
:1004700010BDC046D001002010B5FFF78BFFFFF77D
:10048000E7FF012010BD000000B58BB0FFF73EFF75
:1004900000F0D6FB04AB029300230193034B0093BF
:1004A000034A01235B4200F099FCFEE77904001047
:1004B000B817FEFF10B58300084A944663441C68D1
:1004C00040226240C02414408022520113431C6029
:1004D000C000034B9C466044416010BD04C0014015
:1004E00000400140EFF3108072B6034B1B68002BF5
:1004F000FBD0BFF35F8F70472C0100D0BFF35F8F3D
:10050000024B00221A6080F3108870472C0100D043
:10051000F8B505000C001600FFF7E4FFE308EF183C
:10052000EA5C072121401300CB40DB0707D40123FD
:100530008B40DBB213433B70FFF7E0FFF8BD2100B7
:10054000300001F085F80000002307E0054A9A1802
:100550009200BFF35F8F0021116001331F2BF5D98B
:100560007047C04640000034054A1078431CDBB297
:100570001370172B02D9130010221A707047C0464F
:10058000F0010020034B1B6802201840431E9841D5
:10059000C0B2704700C0064010B50C00CB68834263
:1005A00007D108000B699847002809D020686168C6
:1005B00010BD1E21054B064AFF31064801F02AF8FE
:1005C0000023E36000200021F2E7C0461C42001037
:1005D000904400103042001070B505000C00080077
:1005E00000F092FC200000F063FD0849200000F0BC
:1005F000A3FCFFF7B9FF064B9C466044800068608F
:100600002C75A400034BE55070BDC046ED080010EA
:10061000400000344C04002010B5002922D00368AB
:100620001B7B99421ED8174B9C4661440901836885
:100630009C4661440C684968002A19D003681B7BFA
:100640009A4215D883680F488446624412019A186A
:1006500010685368020001208B4201D80ED00020A0
:10066000C0B210BD084B094A3921094800F0D2FF39
:10067000054B064A3921064800F0CCFFA242EFD8CC
:10068000EDE7C046FFFFFF0F78420010E044001086
:100690003042001010B500291ED0037B99421BD8B0
:1006A0004B005B18033B0468A4466344002919D03F
:1006B000002A1DD0914221D0002A25D0047BA242DD
:1006C00022D80468500080180338201881701978E7
:1006D00000291FD11A7010BD104B114A6921114811
:1006E00000F098FF104B114A70310E4800F092FF55
:1006F0000F4B0E4A71210B4800F08CFF0D4B0B4A3B
:100700007221084800F086FF044B054A692105481C
:1007100000F080FF41701A70DDE7C046AC42001067
:100720004C450010C842001020430010284500101E
:100730002C4300103843001070B506000D00140063
:10074000002914D0002A14D08068736898470028C4
:1007500006D0220029003000FFF79CFF280007E0A8
:100760002A0021003000FFF795FF200000E0100074
:1007700070BD0800FCE70000F0B583B005000092F2
:1007800001930AAB1C780BAB1F78002C26D00368B2
:100790005A7B944207D10123002B19D1002C3BD165
:1007A000200003B0F0BD002C0CD01A7B944209D875
:1007B0001A6863001B19033BD3189B78002BEBD0FE
:1007C0000123E9E73E4B3F4A69213F4800F022FF01
:1007D0003E4B3F4A62213F4800F01CFF03689C7B70
:1007E000002CDBD012D01A7B94420FD86200121971
:1007F000033A19688C46624451789973002900D1F4
:10080000D9730023937053701370C7E72C4B2D4A94
:1008100069212D4800F0FEFE002C3AD02B681B7B8E
:100820009C4236D82C4BE3181B01AA6894466344BB
:10083000009A1A60019A5A60089A9A60099ADA60D6
:100840002E68002C2BD030D0337B9C422DD86300F7
:100850001B19033B32689446634400229A705A7015
:100860001A70717B22003000FFF766FF70738442BC
:1008700000D095E7287D009A019B00F0A5FB061E9D
:1008800001D0002F17D00C9B002B00D188E71E70E1
:1008900086E7124B124A39210E4800F0BBFE114B7D
:1008A000114AA621084800F0B5FE054B054A69210A
:1008B000054800F0AFFE2868210000F0C3FDE2E724
:1008C000AC4200104C450010C842001050430010CC
:1008D0005845001030420010FFFFFF0F7842001013
:1008E000E04400102C4200103C450010F0B5DE46FC
:1008F00057464E464546E0B58BB009900023089315
:100900008200B24BD658370032E0B14BB14A3D219C
:10091000B14800F07FFEB14BB14A3921B14800F037
:1009200079FEB14BB14A8921AE4800F073FEB04B5D
:10093000AE4A8D21AB4800F06DFEA84BAD4A3E217A
:10094000A84800F067FE2A686B68099800F03CFB35
:1009500000239A4698467B68BFF35F8F00221A6097
:1009600086F310884346002B51D1002800D126E1A0
:1009700000F0D6FA02000B1EC7DB00200021069013
:1009800007917868EFF3108672B601680029FCD0F1
:10099000BFF35F8F396888464C7B002C32D0BAD0C9
:1009A000097B8C42B7D8944965182D01B9688C46EB
:1009B000654428686968801A99410029C3DC01D11F
:1009C0000028C0D10021404600F032FDA042A8D14D
:1009D0002A686B6806920793AB689846EB689A465C
:1009E0004346002BA3D0002CA7D03B681B7B9C4226
:1009F000A3D8631EFA68D35C08931B0218433861BE
:100A00000020A8E700239A4698460020A3E7089B09
:100A10001B022343994651461800C04705000E00AB
:100A20007A68EFF3108B72B6136859424B41D9B212
:100A3000002BF9D1BFF35F8F002E26DB002E52DD95
:100A40003B69002B53D04B4572D100F069FA02008C
:100A50000B1E73DB0100180052197341984202D833
:100A600004D1914202D901225242D317002B6BDBF1
:100A700000210491013103910294514601914146B4
:100A800000913800FFF778FE49E03B69002BD5D094
:100A90004B451CD1069A079B10001900521BB3410D
:100AA000994202D804D1904202D901225242D3176E
:100AB000002B12DB00210491013103910294514675
:100AC0000191414600913800FFF756FE27E04B4B5D
:100AD000464A9C21434800F09DFD3D4B3D4A3D2147
:100AE0003D4800F097FD002E01D1002DA8D13A68B5
:100AF000002C45D0537B9C422CD1012100293FD1B1
:100B0000D37B002B42D1D473002C52D03B681B7B8B
:100B10009C424ED8FA68013C135D01331355002303
:100B20003B617A68BFF35F8F13608BF310881FE718
:100B3000324B2E4A9F212B4800F06CFD244B254A56
:100B40003D21254800F066FD214B224A3D212248E7
:100B500000F060FD002C0DD0137B9C420AD863008E
:100B60001B19033B1068844663449B78002BC5D057
:100B70000121C3E7224B234A6921234800F04AFDA3
:100B8000224B234AF721204800F044FD002B0AD0D5
:100B9000117B8B4207D85900CB18033B11688C4658
:100BA00063445C70AFE7164B164A6921164800F0A3
:100BB00031FD0A4B0F4A3E210A4800F02BFD0BB0D5
:100BC000F0BCBB46B246A946A046F0BD4C0400208E
:100BD00078430010AC440010944300107842001099
:100BE000E044001030420010E8430010C4440010FC
:100BF0000044001004450010FFFFFF0F0C440010DC
:100C0000AC4200104C450010C8420010484400108F
:100C10001845001010B5084B5B68002B00D010BDC4
:100C2000054C2300054A1021206800F021FB032118
:100C30002000FFF7D1FCF2E7F401002019060010B4
:100C400010B5064B5B68002B01D0044810BD044B67
:100C5000044A5921044800F0DDFCC046F40100209C
:100C60006C440010EC44001030420010F0B5DE4639
:100C700057464E464546E0B58BB0804616001F00ED
:100C8000149B9A46159B994616AB1B789B461F23CF
:100C900002AA9446634400221A7032E0002809D068
:100CA00042461268127B904204D8421E4146C968EF
:100CB0008A5C48E0434B444A3E21444800F0AAFC89
:100CC0000798002B75D05B46002B72D04946D04761
:100CD00004000D0003000B4300D171E0002946DB46
:100CE00000F01EF906000F1E55DB36196F41B942A0
:100CF00002D804D1B04202D901267642F717002F5C
:100D00004FDB43465A68EFF3108472B613685942BA
:100D10004B41D9B20791002BF8D1BFF35F8F1F333E
:100D200002AA9446634404930023039302934B4620
:100D300001935346009332003B004046FFF71CFDF1
:100D4000031EABD1020041464968BFF35F8F002507
:100D50000D6084F31088002B29D01F2302A98C4634
:100D600063441B78002BABD112021043A9E7320079
:100D70003B00361BAF41BB4202D804D1B24202D97C
:100D800001267642F717002FBBDA114B114A3D219D
:100D9000114800F03FFC0E4B0E4A3D210E4800F07A
:100DA00039FC0B4B0B4A3D210B4800F033FC012072
:100DB00040420BB0F0BCBB46B246A946A046F0BDCF
:100DC0000798F6E778420010044500103042001002
:100DD00078430010AC44001094430010F0B585B087
:100DE0000700100019000C9E13000B4301D10120D5
:100DF0000021B7600A9B3361306071600B9B7361A7
:100E0000CA1713005040040051400D00A41A9D4120
:100E100000F086F802000B1E1BDB010018001219FF
:100E20006B41984202D804D1914202D90122524228
:100E3000D317002B13DB0121029101960B4900917E
:100E40003800FFF713FFF060C317181AC00F05B082
:100E5000F0BD074B074A3D21074800F0DBFB044B80
:100E6000044A3D21044800F0D5FBC0469905001016
:100E700078430010AC4400109443001070B5EFF3B9
:100E800005833F2018401038EFF3108C72B6194BD1
:100E90001B68002BFBD0BFF35F8F0123190081403B
:100EA000154A5163154A12781400C440234214D0E5
:100EB000114B5C6A8300124D5B599C4206D3830040
:100EC000104C1B598A430D490A7007E00A4A031D5A
:100ED0009B0099589950002300E00023BFF35F8FD7
:100EE000044A002111608CF31088002B00D0984731
:100EF00070BDC046280100D00040054072060020A9
:100F000060060020CC03002010B50100024A03480F
:100F1000FFF7FEFA10BDC0467045001070060020B5
:100F2000044B5B6A034A906A1900536A9942F9D1EB
:100F30007047C0460040054070B504000D00EFF357
:100F4000108672B61B4B1B68002BFBD0BFF35F8F64
:100F5000002D1CD0200000F0ADFD174B83420BD0BC
:100F60001900200000F0BEFD0121200000F08CFDE2
:100F70000123A340114A1360A400114BE550BFF3B5
:100F80005F8F0C4B00221A6086F3108870BDA200A0
:100F90000B4B0021D1500122A2400A490B78934308
:100FA0000B700549200000F0D3FD0021200000F067
:100FB0006BFDE4E7280100D07D0E0010386005408D
:100FC000CC03002072060020F0B5DE4600B584B0E8
:100FD0000400150001921E000293FFF7A1FF039584
:100FE0008E4202D84ED185424CD9EFF3108B72B6A7
:100FF000274B1B68002BFBD0BFF35F8F254A177868
:101000000125A540EBB23B431370234B5D63221DCA
:1010100092000199D150A2002049029850501B6AB9
:101020002B4212D11C4B1B6C2B4208D00020BFF36B
:101030005F8F174B00221A608BF3108823E0184B48
:10104000184AB321184800F0E5FAFFF769FF8E420D
:1010500014D802D1039B834210D80E4B1B78BB429D
:101060000ED00D4B1D625D631F2004400123A34081
:101070000E4A1360074B1F701E38D8E70020D6E7D2
:101080000120D4E7012004B080BCBB46F0BDC046BF
:10109000280100D0720600200040054060060020B4
:1010A000944500100C460010B845001080E200E0A6
:1010B000EFF3108C72B60B4B1B68002BFBD0BFF309
:1010C0005F8F01238340084A136208490A789A43D4
:1010D0000A70BFF35F8F034B00221A608CF31088F5
:1010E0007047C046280100D000400540720600202D
:1010F000024B9C4661448900016070474000003407
:1011000010B50400FFF730FA01002000FFF7F0FFF0
:10111000FF232371BFF35F8F10BD000010B50029BE
:101120001ED0037B99421BD84B005B18033B04681D
:10113000A4466344002919D0002A1DD0914221D031
:10114000002A25D0047BA24222D8046850008018CF
:10115000033820188170197800291FD11A7010BD2A
:10116000104B114A6921114800F054FA104B114AF2
:1011700070310E4800F04EFA0F4B0E4A71210B48A9
:1011800000F048FA0D4B0B4A7221084800F042FA71
:10119000044B054A6921054800F03CFA41701A7079
:1011A000DDE7C046AC420010C4470010C842001042
:1011B00020430010B04700102C43001038430010AB
:1011C00070B506000D001400002914D0002A14D0B8
:1011D000806873689847002806D0220029003000F4
:1011E000FFF79CFF280007E02A0021003000FFF7EE
:1011F00095FF200000E0100070BD0800FCE7000033
:1012000010B50023437301338373037BC37301233E
:10121000027B9A4214D9002B0CD0027B934209D84E
:101220005A00D218033A01688C4662440133DBB29B
:101230005370EDE70B4B0C4A69210C4800F0EAF9BA
:10124000002A09D0924207D8016853009A18033A3D
:101250008A180023537010BD024B034A69210348CA
:1012600000F0D8F9AC420010C4470010C84200108A
:1012700010B5017342608360FFF7C2FF10BD00002C
:1012800070B50400081E00D170BD002934D0237B46
:10129000994231D84B005B18033B22689446634463
:1012A0005A78002AF0D02DD0237B9A422AD85300B6
:1012B0009B18033B21688C4663445D78002159707C
:1012C000002825D0237B984222D843001B18033BDB
:1012D00021688C4663440021597001002000FFF70B
:1012E0006FFF060029002000FFF7CAFF020031004F
:1012F0002000FFF765FFC7E7084B094A6921094845
:1013000000F088F9054B064A6921064800F082F989
:10131000024B034A6921034800F07CF9AC420010FB
:10132000C4470010C842001070B505000C0016003C
:10133000002928D02DD0037B99422AD84B005B1876
:10134000033B0268944663445A78002A27D19A786E
:10135000002A2AD11978FFF793FF0300002E03D04B
:10136000EA7B002A27D1EC73002B37D1002C49D01F
:101370002B7B9C4246D82B6861000C19033C1C193E
:101380000023637070BD224B224A3821224800F0AE
:1013900041F9224B224A6921224800F03BF9224BB5
:1013A0001C4A3A211C4800F035F9204B194A3B21D0
:1013B000194800F02FF9002A0AD0297B8A4207D861
:1013C00051008A18033A29688C4662445470CAE76F
:1013D000124B134A6921134800F01CF9002B0BD063
:1013E0002A7B934208D843001B18033B2A68944683
:1013F000634400229A70B9E7084B094A69210948F9
:1014000000F008F9054B064A6921064800F002F988
:10141000BC4600109C470010C4460010AC420010AF
:10142000C4470010C8420010104700103847001091
:1014300070B504000A00457B2900FFF775FF607353
:10144000280070BD70B50400002967D0437B8B4233
:101450000ED0002911D0037B99420ED84B005B18A7
:10146000033B0268D0188378002B0CD1002056E093
:101470000121FFF7DDFF012051E0294B294A6921B5
:10148000294800F0C7F8002B20D0227B93421DD8BA
:101490005A00D318033B2268D2182568EB5C8B42B4
:1014A0001AD0002B1BD0227B934218D85A00D31895
:1014B000033B2268D21853788B4216D0002BF0D110
:1014C0001A4B1B4A67211B4800F0A4F8144B154A1D
:1014D0006921154800F09EF84378137007E0104B1F
:1014E000104A6921104800F095F8437853700023A2
:1014F0008370437001222000FFF716FF0200617B1A
:10150000814205D02000FFF75BFE6073012006E0FA
:10151000094B074A6D21074800F07CF8002070BD98
:10152000AC420010C4470010C84200105C470010D5
:1015300084470010C44600106447001070B5234B68
:10154000234A1A60234B244A1A60244B9A68224B80
:101550009343FAD1224C01E008CC9847214B9C429E
:10156000FAD300F001F91B4B1F4A1A601B4B9B6812
:10157000DB43DB01FAD11D4B40229A675A671A6799
:10158000DA661B4C03E02000FFF7BAFD0834194B64
:101590009C42F8D3184CA168184DC022280002F0D4
:1015A0005BFCA560FEF75FFE002800D000BEFEF7E2
:1015B000CBFF00F03DFCFFF72DFB114C01E008CC08
:1015C0009847104B9C42FAD370BDC04600E00040E3
:1015D000BFCDFFFF00F00040FE7F3C0000C0004098
:1015E00098020020A8020020FFFFFF0100F0014048
:1015F000900200209802002000ED00E00000002092
:10160000A8020020AC02002000BEFDE710B5FFF7E5
:10161000FBFF000010B582B00C001900002A0CD0AE
:10162000084B002A0BD001920093230002000648C9
:1016300002F02AFD0120FFF7E7FF044BF1E7034A20
:10164000F1E7C046D0470010E0470010DC4700102B
:101650000FB400B583B0084802F0E6FC049B002BF1
:1016600007D005A90191180002F0ECFC034802F034
:10167000DBFC0120FFF7C8FF1048001020480010D5
:10168000F8B5D646474680B506000D001700089A03
:10169000934243D3190E1802089A002301F018FD53
:1016A00080467400A419A4002A4B9C4664446368D5
:1016B000834200D26060331FDBB29A46012B33D9DC
:1016C000C0239B012343802212011A60B300224AE7
:1016D0009958002905D0506901F0B4FC0130013857
:1016E000FDD17F0122685740E022174080235B0133
:1016F00023431F605246012A21D980239B012343A3
:10170000802212011A6043466360B600124B089AA9
:10171000F2500120C0BCBA46B046F8BD0F4B104A8B
:101720002E211048FFF776FF012DC9D1C0239B0160
:10173000234303221A60A368DB07FCD5D1E72168A5
:10174000694003220A401A60A2680123AB40134299
:10175000FAD0D2E700800040DC03002024480010CB
:101760008C4800103848001030B583B00C2000F0D1
:101770008DF8FEF707FF00280DD0002304E0990044
:10178000334A344888500133092BF8D9304B324A58
:101790005A6203B030BD314B00229A6700F07EF8E8
:1017A0002F4B01221A602D4B5B6C012BFBD12D4B73
:1017B00003221A60294B9B6B012BFBD1C0239B0199
:1017C000294A1360294A1360294B9A68C0239B0158
:1017D0009343F9D1022400940633264A0121264876
:1017E00000F070F800940523244A0121244800F0F9
:1017F00069F8244B0093002202210420FFF740FFE8
:10180000214D00952B00002201210520FFF738FF14
:10181000104C00942300002200210720FFF730FF26
:1018200000942300002200210820FFF729FF0A4B23
:1018300000932300002200210920FFF721FF0095DB
:101840002B00002200210620FFF71AFFA1E7C04667
:10185000DC030020006CDC021BB7000000800040AD
:101860003CB0004030B0004000E0004000F00040DC
:1018700000C00040002F68590080024000389C1CC6
:1018800000C00240001BB7004059730780239B0033
:101890000343014AD362704700800540064BAA22E9
:1018A00012011A602F22DA60044B054A1A60024BBB
:1018B0005B68002BFBDA704700400240006002408A
:1018C00000B0FA00F0B5CE4600B504008946160017
:1018D0001D0001235B424360002383600C2001F064
:1018E000B1FB07004B46236043011B1A9901C91A3B
:1018F000C90009188901300001F0A4FB0200103A68
:1019000098235B009A4220D86B1E062B23D8069B97
:10191000013B062B1FD8069B9D4222D33209BA42B7
:1019200025D3A060221DC0239B01134321221A60EE
:101930002268002AFCDA2D04069A16033543E56076
:1019400008221A6080BCB946F0BD0C4B0C4A1A2123
:101950000C48FFF75FFE0C4B094A1D210948FFF7B1
:1019600059FE0A4B064A23210648FFF753FE084B4F
:10197000034A27210348FFF74DFEC0469C4800104C
:1019800088490010B8480010084900105449001058
:101990006C490010074B9B68103080001950BFF352
:1019A0005F8FBFF35F8F044B0021196082F31088B3
:1019B0007047C04600ED00E0240100D010B5091AC0
:1019C00004394808090B05D14005400D044B184364
:1019D00080B210BD034B044A8C210448FFF71AFE65
:1019E00000E0FFFF94490010C04B0010A449001014
:1019F00010B5091A04394C08090B08D14905490DDD
:101A0000064A11430180064B2343438010BD054B1A
:101A1000054A94210548FFF7FDFDC04600F0FFFF91
:101A200000F8FFFF94490010944B0010A4490010E7
:101A300010B503001F2809D8012098400300064A6A
:101A400010681840431E9841C0B210BD034B044AB1
:101A500025210448FFF7DEFD00E100E0F449001015
:101A6000F84B0010A4490010002904D0034B186063
:101A7000034B18607047034B1860FBE780E200E0FF
:101A800000E100E080E100E010B51F2805D8012347
:101A900083401800FFF7E8FF10BD034B034A2521E0
:101AA0000348FFF7B7FDC046F4490010F84B00109B
:101AB000A449001010B51F2805D8064B9B681030AC
:101AC0008000C05810BD044B044A25210448FFF78C
:101AD000A1FDC04600ED00E0F4490010F84B0010F5
:101AE000A449001070B504000D001F2816D8EFF3AC
:101AF000108672B60F4B1B68002BFBD0BFF35F8FB5
:101B00002000FFF7D7FF0C4B984201D0A8420BD121
:101B1000320029002000FFF73DFF70BD074B084A47
:101B200025210848FFF776FD074B084A7021054834
:101B3000FFF770FD240100D0CD010010F449001022
:101B4000F84B0010A4490010044A0010DC4B0010B0
:101B5000F0B5CE46474680B583B006000D00EFF3E2
:101B6000108872B6574B1B68002BFBD0BFF35F8FFA
:101B7000554B9A6834001034A300D758534B9F42FA
:101B800007D0AF4200D19BE00197514BFB1A2F2B9E
:101B900009D9424639003000FFF7FCFE03B0C0BC53
:101BA000B946B046F0BD3000FFF742FF8146002144
:101BB0003000FFF769FFBFF35F8FFEF754FB00288B
:101BC00001D0844219D10123019C9C432300404948
:101BD0005B1A5B4148495943090D49B20022A36889
:101BE000AB4212D00622A256002A0DDB53009B18EE
:101BF0009B002200364CE418F1E72021354B364A91
:101C0000FF313648FFF706FD2200AB4251D10625D1
:101C10006557002D39DB6B005B199A002C4B9B1824
:101C20009A68A260DA79E27106229A56A2719B79CB
:101C30005BB2002B10DABD200002A0806B005B19A4
:101C40009B00234AD318264A11789971157049468A
:101C50003000FFF719FF9CE7201D6B005B199B000C
:101C60001B4A9B181A1D9B88D90A1C2907D15B05A2
:101C70005B15023359005118FFF7A0FEDDE7194B41
:101C8000194A9A211548FFF7C5FC00280CD1002AF3
:101C900008D0FF239371154B9380114B1A78A271D2
:101CA0001970D4E7094FF8E7201D1149FFF7A0FE8E
:101CB000CDE7AA210F4B084A49000848FFF7AAFCC4
:101CC000024F66E7240100D000ED00E0CD010010D6
:101CD0001C020020184B0010AC4B0010A44900104F
:101CE00071060020004B0010CC4B001000BDFFFF20
:101CF000560200203C4B0010AAAA000010B51F2875
:101D00000FD8032304009C43094A94466444226884
:101D10001840C000FC3383409A4381401143216046
:101D200010BD044B044A25210448FFF773FCC0464C
:101D300000E400E0F4490010F84B0010A449001042
:101D400070B50400012606432D4BF31A2F2B28D81B
:101D5000FEF789FA00282BD0EFF3108C72B6294BCE
:101D60001B68002BFBD0BFF35F8F2300244D5B1B50
:101D70005B412E4D5D432D0D6DB2234B9B68800062
:101D80001B58B3421BD00022032A32D853009B18A1
:101D90009B001B49CB189B795BB2AB421FD0013231
:101DA000F2E77221194B1A4AFF311A48FFF732FC49
:101DB000BA21194B164A49001648FFF72BFC124B63
:101DC0009B68164A1A50164B1A78A2711D70BFF301
:101DD0005F8F0C4B00221A608CF3108870BD0800D6
:101DE0005300991889004118FF268E710D4A8A8088
:101DF000E9E786210C4B064AFF310648FFF70AFC4B
:101E00001C020020240100D000ED00E0444B001033
:101E1000784B0010A44900106C4B0010CD0100104D
:101E20007106002000BDFFFF5C470010AAAA000059
:101E300010B5002404E080212000FFF75FFF01348B
:101E40001F2CF8D910BD704710B5002802D00B68C0
:101E50004968984710BD0100002007E083001B1867
:101E60005B00501C08601078C01830380A6813787E
:101E7000303BDBB2092BF1D97047F0B5DE4657464F
:101E80004E464546E0B583B093461F000C9B9A46EC
:101E90000D9C0E9B99460F9B9B0703D0B8460F00E5
:101EA000060022E00192A34688464E46B946070046
:101EB000B44207D2551C4B4641462020B847013456
:101EC0002A00F5E73D004F465C46019B9B46B14624
:101ED0004646B84637002E0007E0013C551C5346E5
:101EE000185D43463900B0472A00002CF5D1350073
:101EF0003E0047460F9B9B0707D4100003B0F0BC81
:101F0000BB46B246A946A046F0BDB0464E46B946CD
:101F10002F005D46531BB342EFD2541C4B46414643
:101F20002020B8472200F5E7F0B5CE46474680B5F9
:101F300085B0944698460C9D0D9C0EAB1B78994637
:101F4000109A119B129EB7071CD4002B0CD0F707D8
:101F50000AD54F46002F02D10C37374204D0013B3F
:101F600002E030272F550134944201D21F2CF8D9BA
:101F7000F70707D59C4205D21F2C03D830272F55D1
:101F80000134F5E7F70615D5770505D4002C03D005
:101F9000944224D09C4222D00F9A102A2BD00F9A20
:101FA000102A30D00F9A022A35D01F2C02D83022A6
:101FB0002A5501341F2C05D84A46002A31D02D223B
:101FC0002A550134039602930194009543466246D4
:101FD000FFF753FF05B0C0BCB946B046F0BD621E66
:101FE000012C06D00F9F102F01D01400D4E7023C23
:101FF000D2E71400D0E7B206D1D41F2CCFD8782274
:102000002A550134D1E7B206CCD51F2CCAD85822A4
:102010002A550134C9E71F2CC7D860322A5501342C
:10202000C3E7720703D52B222A550134CAE73207CA
:10203000C8D520222A550134C4E7F0B5DE465746FC
:102040004E464546E0B593B081468A4608920993CC
:102050001CAB10CB1B789B461E9D219B9846002CE9
:1020600003D1102342469A4390468023DB00464624
:102070001E4042461A4212D0002C22D000260EE00A
:102080003033D9B2771C0AAB99552900200000F0F3
:10209000D9FFAC4216D31F2F14D83E0004002900EC
:1020A000200000F0CFFFCBB2092BE9D942469206BF
:1020B00005D54121C918C9B20A39C9B2E2E761217F
:1020C000F8E7270043460693209B05931F9B049344
:1020D00003955B46029301970AAB0093099B089A0C
:1020E00051464846FFF720FF13B0F0BCBB46B2464E
:1020F000A946A046F0BDF0B5DE4657464E464546D9
:10210000E0B595B0089009910A920B931E9E1F9C12
:1021100020AB1B789B46229B9946239D269B9A4683
:102120003300234303D1103352469A43924680230F
:10213000DB0057461F4052461A4219D03300234352
:102140002DD0002714E03033DAB27B1C98460CAB5C
:10215000DA554A462B003000210000F0B9FFA542B5
:102160001FD819D043461F2B1BD8474606000C002A
:102170004A462B003000210000F0AAFFD3B2092B01
:10218000E1D95246920605D54122D218D2B20A3A76
:10219000D2B2DAE76122F8E7B145E3D901E00023E2
:1021A000984653460693259B0593249B04934B46E0
:1021B00003935B460293434601930CAB00930B9B46
:1021C0000A9A09990898FFF7AFFE15B0F0BCBB4614
:1021D000B246A946A046F0BDF0B5DE4657464E468B
:1021E0004546E0B591B083468A460C9298461A9CC3
:1021F00008941B9D099522002B002000290001F066
:10220000DEF9002800D0E5E001225242D74B200041
:10221000290001F0CFF9002800D0DBE00122524272
:10222000D34B2000290001F0AFF9002800D0D1E005
:1022300000220023089D2800099E310001F0A4F926
:10224000002800D0DDE008980999069007918023C6
:10225000DB001E9A1A400D921E9A1A4201D10623E3
:102260001C930698079904000D000A00060002431B
:1022700000D1D1E0080D4005400DBE4CA44660449D
:102280000A03120BBC4B13431F0001F0ABF9BB4A0E
:10229000BB4B01F037F9BB4ABB4B01F021F90400FD
:1022A0000D000022B94B3000390001F010F9B84A96
:1022B000B84B01F027F902000B002000290001F0C3
:1022C0000FF901F0A7F9814601F08CF904000D0027
:1022D000B14AB24B01F016F90022B14B01F000F9FE
:1022E00001F098F90600AF4AAF4B2000290001F039
:1022F00009F904000D00300001F074F9AB4AAC4B51
:1023000001F000F902000B002000290001F0DFF8C5
:1023100004000D0002000B0001F0F4F80A900B918C
:10232000A44BF31800261F0522002B0020002900D3
:1023300001F0D6F80E900F9122002B000020802192
:10234000C90501F0C4F804000D0000229A4B0A9858
:102350000B9901F0CEF80022984B01F0C1F8020071
:102360000B000A980B9901F0C4F80022944B01F07D
:10237000B7F802000B000A980B9901F0BAF80200B6
:102380000B002000290001F0ABF802000B000E98B2
:102390000F9901F0AEF80022774B01F0A1F832005E
:1023A0003B0001F0AFF806000F0004000D00069A94
:1023B000079B01F0FFF8002830D001235B429C46C8
:1023C000E14400227D4B3000390001F092F8040016
:1023D0000D0023E01E9B04931D9B03931C9B029303
:1023E000089A099B0092019343460C9A514658461D
:1023F00000F0FCF811B0F0BCBB46B246A946A046BE
:10240000F0BD0023002406930794069580231B0645
:102410009C46664407961AE7002399464B46633369
:10242000C62B1ED804261E9B1B0526D52B00234336
:102430000FD0644A644B0698079901F0B3F800285E
:1024400079D00022614B0698079901F09DF8002889
:1024500071D01C9B4B4506DD4A46981A431E1C93BF
:1024600003E00526DFE700231C938023DB001E9A90
:102470001A431E920026002399461D9B9E4264D259
:102480009F1B02231E9A1A400A921E9A134202D0E0
:10249000002E00D000274B46002B07D022002B0037
:1024A0000698079901F025F806900791002200236D
:1024B0000898099901F068F8002848D1444B1E9A01
:1024C0001340049303971C9B0293069B079C009365
:1024D000019443460C9A5146584600F087F8002E66
:1024E00000D187E71E9B9B063DD54525441C4346EE
:1024F000020051462800D8474B46DA179B18534034
:1025000005220592013E0496002203920A320292AD
:102510004A46D00F01900093434622005146584648
:10252000FFF78BFD0A9B002B00D163E702005F469B
:102530000C9E1D9D54E01C9B002B9ED00D9B002BE0
:102540009BD01C9B013B1C9397E7002799E7069CB7
:10255000079D2200290080200006844661440B006C
:1025600006920793AAE76525C0E7C046FFFFEF7F05
:10257000FFFFEFFF01FCFFFF0000F03FFB799F50E2
:102580001344D33FB3C8608B288AC63F0000F83F8E
:1025900061436F63A787D23F71A379094F930A40C4
:1025A0000000E03F1655B5BBB16B0240EF39FAFEB3
:1025B000422EE63FFF03000000002C4000002440B4
:1025C000000018402D431CEBE2361A3F80842E4158
:1025D000FFF7FFFF541C434651462020B847220016
:1025E000931BAB42F6D3100004E7C046F0B5DE46BD
:1025F00057464E464546E0B595B00690079193463E
:102600009946209F1E9A1F9B1000190000F0D7FFCB
:10261000002831D101225242BF4B1E981F9900F071
:10262000B3FF002837D101225242BC4B1E981F999C
:1026300000F0C0FF00283DD10022B94B1E981F9921
:1026400000F0B8FF002850D10022B64B1E981F9909
:1026500000F09AFF002848D1002200231E981F99FD
:1026600000F092FF002850D100239846229B5B0582
:1026700000D4B6E0002458E0229B0393219B0293F0
:1026800003230193A84B00934B465A46079906989B
:10269000FFF7F3FB0EE1229B0393219B029304239C
:1026A0000193A24B00934B465A4607990698FFF7B1
:1026B000E4FBFFE00423229A1A4022990B4210D037
:1026C0009B4B002A0FD00422229903912199029159
:1026D000019200934B465A4607990698FFF7CDFBA7
:1026E000E8E0944BEDE70322EEE7229B0493219B65
:1026F000039302971E9B1F9C009301944B465A46DE
:1027000007990698FFF768FDD4E01E9A1F9B0020EA
:10271000002100F0DCFE1E901F9101239846A5E7E2
:102720000CAB30221A55013F01341F2C01D8092F60
:10273000F6D81E981F9900F06DFF050000F052FFBB
:1027400002000B001E981F9900F0C1FEFA007A4BA0
:102750009B181A685B680A920B9300F0D3FE0890EE
:10276000099100F07BFF060000F038FF02000B002B
:102770000898099900F0ABFE0890099100226F4B70
:1027800000F018FF00282ED00136300000F026FFA0
:1027900002000B000A980B9900F0FCFE002801D003
:1027A00001350026002F2CD1280000F01BFF02006D
:1027B0000B001E981F9900F08AFE06000F000022F1
:1027C0005E4B00F0E1FE002846D100225B4B30005A
:1027D000390000F0EFFE00283ED1EB073CD5013573
:1027E0003AE0062746E70022544B0898099900F082
:1027F000CBFE0028D6D1002E01D0F307D2D501366A
:10280000D0E7AA461F2C11D8013F0A21300000F062
:1028100019FC651C30310CAB19550A21300000F051
:1028200011FC092E0ED906002C00EBE755461F2C93
:102830000CD87B1E002F09D00CAA302111551F0087
:102840000134F4E72B0055461C00F0E71F2C03D899
:102850000CAB2E221A5501341F2C10D80A21280047
:1028600000F0C4FB661C30310CAB19550A2128005E
:1028700000F0BCFB051E01D03400EDE7340003235B
:10288000229A1340012B1CD01F2C06D84346002B44
:1028900032D00CAB2D221A550134229B0393219B7D
:1028A000029301940CAB00934B465A460799069845
:1028B000FFF7E3FA15B0F0BCBB46B246A946A04606
:1028C000F0BD219B002B13D04346002B02D10C33CB
:1028D00013420FD0219B013B2193190003E00CAB65
:1028E00030221A5501348C42CED21F2CF7D9CBE7B7
:1028F0002199F8E72199F6E7229B5B0704D50CABF9
:102900002B221A550134C8E7229B1B07C5D50CABF7
:1029100020221A550134C0E7FFFFEFFFFFFFEF7FD2
:1029200065CDCD4165CDCDC1144C0010184C0010C3
:102930000C4C0010084C0010004E00100000E03F4E
:10294000F0B5DE4657464E464546E0B593B0824662
:102950008B4690461193002900D1EBE200275546A3
:10296000119B1878002800D1E7E2252809D07C1CAB
:1029700043463A005946A847119B0133119327005B
:10298000EEE7013311930024119A11780B00203BDC
:10299000D8B2102803D88300D048C3589F460B00F4
:1029A000303BDBB2092B2CD92A292FD000230A93E4
:1029B000119B1A782E2A39D000239A46119A13783F
:1029C000683BD9B2122976D88B00C549CB589F46AF
:1029D00001231C4301321192D6E702231C4301322A
:1029E0001192D1E704231C4301321192CCE7082352
:1029F0001C4301321192C7E710231C43013211928C
:102A0000C2E711A8FFF727FA0A90D1E71C9B1A1D0D
:102A10001C921868002804DB0A90119B0133119363
:102A2000C6E702231C4343420A93F6E78022D20002
:102A300014435A1C11925A781300303BDBB2092B15
:102A400004D92A2A07D000239A46B7E711A8FFF72E
:102A500002FA8246B2E71C9B1A1D1C9218680028D5
:102A600004DB8246119B01331193A7E70020F8E7AE
:102A700080235B002343511C119152786C2A01D0B2
:102A80001C0018E0C0239B001C430131119112E08F
:102A900080232343511C11915278682A01D01C00D5
:102AA00009E0C0231C430131119104E080235B0045
:102AB0001C4301321192119B18780300253BDAB2B6
:102AC000532A00D92CE29300864AD3589F4680238C
:102AD0009B001C4301321192EDE780235B001C43F5
:102AE00001321192E7E7782809D0582838D06F28AA
:102AF00038D0622838D010239C430A2600E01026E4
:102B0000582833D0692803D0642801D00C2294437C
:102B1000630501D50122944369282AD0642828D06E
:102B2000A30500D59FE0E30500D5B8E0630600D417
:102B3000CAE01C9A111D1C911168FF220A400594DD
:102B40000A9B049353460393029600230193009239
:102B500043463A0059462800FFF76FFA070027E07E
:102B60001026CDE70826CBE70226C9E7202214432A
:102B7000C8E7A30520D4E30550D4630666D51C9AA4
:102B8000111D1C911168FF220A40D317D11859401A
:102B900005940A9B0493534603930296D20F019225
:102BA000009143463A0059462800FFF746FA0700CD
:102BB000119B01331193D3E61C9BDA1D07218A4335
:102BC000110008311C91116853689C46DB170C9367
:102BD0000D930C9A0D9B100048400E906246534096
:102BE0000F930E980F990C9A0D9B801A99410E9095
:102BF0000F9108940A9B079353460693049600236B
:102C000005936346DA0F02920090019143463A0021
:102C100059462800FFF76FFA0700C9E71C9A111DF3
:102C20001C911268D317D118594005940A9B04933C
:102C3000534603930296D20F0192009143463A0005
:102C400059462800FFF7F9F90700B1E7230605D533
:102C50001C9A111D1C910023D25E96E71C9A111D2F
:102C60001C91126891E71C9BDA1D07218A43110011
:102C700008311C9108940A9B0793534606930496C7
:102C8000002305930293136854680093019443460C
:102C90003A0059462800FFF72EFA070088E71C9AE9
:102CA000111D1C9105940A9B0493534603930296AD
:102CB000002301931368009343463A0059462800C5
:102CC000FFF7BBF9070073E723060DD51C9A111D0A
:102CD0001C9112681204120C31E7C046204C0010FF
:102CE000644C0010B04C00101C9A111D1C9112680D
:102CF00025E746281AD01C9B0733072293431A0066
:102D000008321C9204940A9A0392524602925C681A
:102D10001B680093019443463A0059462800FFF788
:102D200065FC0700119B0133119319E620231C4316
:102D3000E1E7672801D0472802D180231B011C430B
:102D4000452801D0472801D120231C431C9B073371
:102D5000072293431A0008321C9204940A9A0392A1
:102D6000524602925C681B680093019443463A0005
:102D700059462800FFF730FA0700119B01331193E1
:102D8000EEE502231A002240924623421FD001247E
:102D90001C9B1A1D1C927A1C9146187843463A00D7
:102DA0005946A8475346002B16D1119B0133119366
:102DB0004F46D5E5561C434659462020B8472300C8
:102DC00032005C1C9D42F5D83D001700E0E701236E
:102DD0003A002F000A9DF4E74A46A9460A9D06E0FC
:102DE000571C434659462020C84734003A00661C09
:102DF000A542F5D84D469146D7E71C9B1A1D1C925B
:102E00001B6899465346002B00D1013B4E4601E01A
:102E1000013613003278002A02D05A1E002BF7D157
:102E20004B46F21A10928023DB0026001E401C4203
:102E300003D0524501D95346109302231A00224071
:102E40000B92234205D03A0037004C46A94655461E
:102E500020E03A00109B5F46B3462E0006E0551C6A
:102E6000434639002020B04723002A005C1C0A9901
:102E70009942F4D835005E46BB46109437004C4664
:102E8000A946554606E01D000134561C43465946E6
:102E9000C84732002078002804D0002FF4D06B1EE1
:102EA000002DF0D117004D460B9B002B03D1119B39
:102EB0000133119354E50A9F109B06E0561C4346CC
:102EC00059462020A847230032005C1C9F42F5D8B9
:102ED0001700ECE721231C431C9B1A1D1C921B6846
:102EE00000930594082304935346039310230293FD
:102EF0000023019343463A0059462800FFF79DF806
:102F00000700119B013311932AE57C1C43463A00CC
:102F100059462520A847119B0133119327001FE52F
:102F20007C1C43463A005946A847119B0133119334
:102F3000270015E50A4B9A4610E5AA46474502D3F5
:102F400043465A1E00E03A00434659460020D04707
:102F5000380013B0F0BCBB46B246A946A046F0BD4F
:102F6000471E001000B585B0029003910121009327
:102F700013004A4202A90248FFF7E2FC05B000BD77
:102F8000491E001001480421014B1847700200201F
:102F9000B52F001010B5010018231B8814221088CB
:102FA000984710BD10B5010018231B881622108801
:102FB000984710BDF0B5C64600B507000E000025C5
:102FC0000123984600E00135B5420AD2AC003C1915
:102FD0002068FFF7DFFF20600028F4D10023984627
:102FE000F1E7404680BCB846F0BD0000144A936F3C
:102FF0009B0815D29066D166002905D0FFE7FFE750
:10300000FFE7516F106F704704B580210906C217A2
:103010005140002800D0C84301F082F8002104BDCF
:10302000936F5B08FDD3F0B5946ED56E576F166F36
:10303000FFF7E0FF9466D56657671667F0BD00009E
:10304000000000D0134A936F9B0813D2106651669C
:10305000002905D0FFE7FFE7FFE7516F106F7047CA
:1030600004B5002801D00020C04301F059F8002128
:1030700004BDC046936F5B08FDD3F0B5946ED56E6A
:10308000576F166FFFF7E2FF9466D56657671667AE
:10309000F0BD0000000000D094464E4A926F9208A6
:1030A000624601D230E0C046F0B54A4EB56F6D08B9
:1030B000FCD3346E756E776F366F00F025F894464A
:1030C000444A14665566576716676246F0BDC046A7
:1030D0009446404A926F9208624601D258E0C04638
:1030E000F0B53C4EB56F6D08FCD3346E756E776FDE
:1030F000366F00F04DF89446364A146655665767A9
:1031000016676246F0BDC046002B24DB11D00029B3
:103110003EDA00B5C943404200D1013100F038F831
:10312000C943404200D10131DB43524200D1013357
:1031300000BD002AEBD1002801D1002905D00020D4
:10314000C90FC90701D1C043410800B500F0E0FF35
:103150000022002300BD00B500290ADBDB435242F8
:1031600000D1013300F014F8C943404200D10131CD
:1031700000BDC943404200D10131DB43524200D17E
:10318000013300F005F8DB43524200D1013300BDAA
:10319000002923D1002B18D1002A0CD0BC460D4F9A
:1031A00038667A6600210023FFE7FFE7FFE77A6FC2
:1031B000386F67467047002801D00748010000B506
:1031C00000F0A6FF0022002300BD02000B0000203B
:1031D00000217047000000D0FFFFFFFF002B00D050
:1031E000BDE0130C26D1002AE7D080B4104F396619
:1031F0007A66FFE7FFE730B4040C7B6F396F1B047E
:1032000023433B66FFE7FFE7FFE7C04684B27B6FDF
:103210003D6F1B0423433B66FFE7FFE7C0460023E7
:103220002C042D0C7A6F386F00196941B0BC7047BF
:10323000000000D0F0B594460025140E01D1120212
:103240000835140F01D112010435940F01D19200F9
:103250000235D40F01D152000135D40B0134254F72
:103260007C66254C3C660E0C93B2FFE7FFE7FFE758
:103270003C6F6643360C7703BE467343DF0B5B043B
:10328000C01AB941130C7343DB18C91ACE08664340
:10329000360CB64493B273431F0F1B01C01AB941D9
:1032A000130C73431F0B1B05C01AB941860D8F0207
:1032B0003E436643360C092D24DB520A7243801AC2
:1032C0007703460A6643360C16235B1BDE40DF405D
:1032D000BF1964466643821B7046043506330100FD
:1032E000D940A840C01900D30131A24206D2002320
:1032F000F0BD0000000000D0FFFFFFFF121B0130F7
:10330000F3D3F1E709277F1BFE406446A2B2724364
:10331000801A00D20139220C7243130C1204821A53
:1033200099410B007046043513370100F940A8405D
:10333000801900D30131002B02D1A2420AD2F0BD84
:10334000013000D30131121BFAD2013BF8D1A24265
:1033500000D2F0BD013000D30131121BF7E7F0B508
:103360001C0C00D080E00CB400251C0A04D11B0208
:10337000160E3343120208351C0B04D11B01160F25
:103380003343120104359C0B04D19B00960F334349
:1033900092000235DC0B02D192185B4101351C0012
:1033A000971864410134464F7C66464C3C660E0CCF
:1033B000FFE7FFE7FFE7C0463C6F6643360C770345
:1033C000BE4697B27743C01B00D20139C01B00D262
:1033D00001399FB27743C91BC91B170C77437E0481
:1033E000FF0B801BB941CE086643360C0C2D33DB36
:1033F000B644120B1F053A431B0B97B27743C01B11
:1034000000D201399FB27743C91B170C77433E04A2
:103410003F0C801BB941860D8F023E43664329272E
:103420007F1BFE400C3D7746AF40BF1930BCA2B2B7
:10343000ABB272437343801A9941220C7243130C4E
:103440001204801A994102000B000137001BA941A8
:10345000F9D2781E0021F0BD0C277F1BFE40774675
:103460007F0BAF40FF19E0E700245D1C07D0144F2D
:103470007D663966FFE7FFE7FFE7FFE73C6F95B240
:103480009EB265436643401BB141150C1E0C65435B
:10349000664336042F0C3E432D04401BB141994234
:1034A00004D202000B0020000021F0BD01D19042A7
:1034B000F7D3801A994101349942F2D3F6E700001C
:1034C000000000D0FFFFFFFF48404140484018B4D3
:1034D000114B5B68FC46019308BD04DF67370010A1
:1034E00018B40D4B1B68FC46019308BD00DF713713
:1034F000001018B4084BDB68FC46019308BD0CDFD4
:10350000293A001018B4044B9B68FC46019308BD8F
:1035100008DFCD38001000005C040020FFB55040EB
:103520004240504059404B40594000E0FFB5154FD4
:103530004C00640D03D0BC4204D10C0314D800200D
:10354000090D09055C00640D03D0BC4204D11C03C5
:103550000AD800221B0D1B0501264B4009D44B4005
:1035600003D58B4200D18242FFBD9942FCD19042EB
:10357000FFBD0B43DB1803431343F5D0C943491880
:10358000FFBD0000FF07000000B5FFF7CFFF80413F
:1035900000BDC04600B5FFF7C9FF01D9002000BD3E
:1035A000012000BD00B5FFF7B9FF01D9002000BD23
:1035B000012000BD00B5FFF7B1FF804100BD012033
:1035C00040054A00121804D85A00121801D80020E9
:1035D000704701207047002070470000002100283C
:1035E00005D17047C1174840401AFAD0C90713B532
:1035F000064B1B6898470CBC441CA2401005120BDC
:103600000349091B09051943114310BD5C0500203E
:103610001F04000010B54C00620D8023D218DB009F
:10362000D21A5B057E2A10DD9E3A13DACC17090305
:10363000490819435242D140640001341532202A0E
:1036400005DAD0400843604310BD002010BD084695
:10365000604310BDC80FC018013810BD18B4044B2A
:103660005B6AFC46019308BD24DF553C0010000056
:103670005C04002070B513231C78012C0FD0012CA2
:103680000FDC022C02DC1D4A1D4B9A6470BD9900B0
:103690001A481B4A885001331F2BF8D9EFE7002343
:1036A000FAE71848FFF77EFC05001748FFF77AFC99
:1036B000023803789B007F2B19DD802229001048F7
:1036C00000F0CAFB022CDCD1104B1A88B5231B0278
:1036D0009A4209D10E4B1A880E4B9A4204D10E4BD6
:1036E0001A880E4B9A42CCD00020FDF7B1FF0C4B4C
:1036F0000C4A30210C48FDF78DFFC0462D370010D5
:103700005C0400205344000053460000543800007D
:10371000D8380000494600009C3800005946000097
:10372000504E00100C4F0010B04E001007B5604610
:10373000002800D100BE01880A0A0230DF2AFAD12F
:10374000C9B2820804D3028840880004104300E014
:103750000068024A5050039007BD00005C0400203E
:103760000FB403BC0CBCF0B50124E407634000E0D7
:10377000F0B50C0DCF0F661E3605891B640503D30B
:10378000C943404200D30131640D03D0661CF60AE0
:1037900007D0E41B00207F00791C89078912803C38
:1037A00024031D0DDF0F6E1E36059B1B6D0503D315
:1037B000DB43524200D301336D0D03D06E1CF60A79
:1037C00007D0ED1B00227F007B1C9B079B12803DD6
:1037D0002D032F1B661B58D4A446202E46DA203713
:1037E0001400BC401D00BD40F24033412A43801804
:1037F0005941CB0F05D0C943C04300226442504118
:10380000514162464D0D28D10D0D07D100281FD022
:10381000241940414941013A0D0DF9D0640006D305
:10382000013000D30131002C01D140084000013AA1
:103830000BD4941CE40A04D112051144DB0719448B
:10384000F0BDD907204B194300E0D9070020F0BD97
:103850000029DDD1002CDBD1F0BD0132C6074008C4
:10386000CD0728434908002EE1D0D9E73C2E29DABC
:10387000203E40371400BC4000D00124F2401443E5
:103880001A00BB401C43D317ACE7AC46202F08DA24
:1038900020360400B4400D00B540F84039412843BB
:1038A000A5E73C2F0CDA203F40360400B44000D09E
:1038B0000124F84004430800B1400C43C117EAE773
:1038C00010001900002494E70000F07FF0B50C0D03
:1038D000661E3605891BE60A6405640D02D0651C68
:1038E000ED0A04D0002001210905803C2403A446F0
:1038F0001C0D671E3F05DB1BE70A6405640D02D043
:10390000651CED0A04D0002201231B05803C240322
:103910007740644497B484B296B27443070C7E43F4
:10392000150C6F4380B26843361802D3012000049F
:103930003F183004350C00197D41844688B29AB294
:1039400050430C0C62431F0C7C438EB27E43921991
:1039500002D301263604A4191604170C3618674141
:1039600001BC81B29AB25143040C62431B0C5C430C
:1039700080B25843121802D3012000042418100406
:10398000130C401863412D185E410020474106BCCE
:1039900088B293B258430C0C6343120C544389B25F
:1039A00051435B1802D301210904641819041A0C4D
:1039B000091862416D1856410020474118BCF902B0
:1039C000720D1143F0026A0D1043ED020A0D03D18E
:1039D0006D1940414941013B124E9B1B7600B34299
:1039E0000ED26D0007D30130002671416646354383
:1039F00001D1400840001B05C918E4072144F0BD6F
:103A00000BDA013306D1013004D101314F0D01D061
:103A10004908F2E7E1070020F0BD0136310500203A
:103A2000EBE70000FF030000F0B51C0D671E3F052B
:103A3000DB1BE70A6405640D02D0661CF60A04D09D
:103A4000002201231B05803C2403D0252D060026DF
:103A5000F6432E661E096E66CE0FF619B44649006F
:103A60004F0D02D07E1CF60A03D000200021403FFB
:103A70003F033E1BB600B444013F7F05C91B490804
:103A80002E6F013676089C02950D25437543ED1384
:103A90007543AD1301356D10F603761B0CB4CC02E3
:103AA000450D2C43A2B2B3B25A43270C7B43350CCD
:103AB0006F43A4B26C431B1902D3012424043F19A1
:103AC0001C041D0CA4187D4124196D41009A91B26B
:103AD000ACB26143170C7C432B0C5F4392B25A4348
:103AE000A41802D301221204BF182204230C521876
:103AF0007B41019C6C431B19520ED9010A434401BE
:103B0000A01A81B2B2B2514303145A43360C734324
:103B100087B27743D617D21900277E4136049B1906
:103B20001704160C7F185E417316ED18F30100267A
:103B300080337541A90F06D16400690AE8055B0A64
:103B4000184309D22FE00422944480337541A90A16
:103B5000A8059B0A184326D3404149412404009AF2
:103B6000019B0D005543641B4343E41A95B286B292
:103B70007543170C7E43030C5F4392B25A43B61849
:103B800002D301221204BF183204330C52197B41B4
:103B900052429C41002C02D4002201305141400885
:103BA000CA071043490802B06246D7079210084B73
:103BB000D218084B9A4203D212058918C919F0BDD0
:103BC0000020002A01DC3900F0BD01331905F5E7BA
:103BD000FD030000FE070000624618CA9446002953
:103BE0001ADAC01861415B463B415C46B44052461C
:103BF000FA40224344464D4662416B419046994605
:103C00002B46B3403D41FC401C4352465B46A2411B
:103C1000AB4192469B467047C01AA1414B463B417F
:103C20004C46B4404246FA40224354465D46624107
:103C30006B4192469B462B46B3403D41FC401C43A2
:103C400042464B46A241AB41904699467047002000
:103C500000217047002200B5203200F004F808006F
:103C600000BD000000220B15F1D410B5944600F001
:103C70002FF81414013400DA0021CB17134C20471D
:103C80006244343A0CD40C2A07DA04009140904084
:103C900052422032D440214310BDD843D94310BDF5
:103CA000203207D40C469440524220321141D04079
:103CB000204310BD0800C917203203D452422032DD
:103CC000104110BD1800190010BD0000813C00100B
:103CD0000A0DCC0F531E1B05C91A520503D3C94345
:103CE000404200D30131520D03D0531CDB0A07D0F0
:103CF000121B00206400611C89078912803A12039C
:103D0000014BD21A70470000FF03000070B5132367
:103D10001D782A48FFF746F90400012D11D0012D26
:103D200009DDA31E1B789B007F2B40DD8022210034
:103D3000234800F091F82348FFF72CF9224B186034
:103D400070BD542201001E4800F086F81F4B1A88EF
:103D50001F4B9A421CD1A7239B011A881D4B9A42E4
:103D600016D11D4B1A881D4B9A4211D11C4B1A8833
:103D700094239B019A420BD11A4B1A881A4B9A42F0
:103D800006D11A4B1A681A4B9A4201D1152307E043
:103D90001848FDF75DFC99001748094A885001331F
:103DA0001F2BF8D9144A064B1A62DA61B7E7134B96
:103DB000134A42211348FDF72DFCC046534600002C
:103DC000600500204C3300005C050020EE29000057
:103DD000C40F0000C20D0000962B0000C0B500000B
:103DE000182B0000CC2A000010B50000FC2C0000AD
:103DF00051ED8764DC470010093E0010204F001091
:103E0000AC4F0010544F001007B56046002800D199
:103E100000BE01880A0A0230DF2AFAD1C9B282083C
:103E200004D3028840880004104300E00068024A7E
:103E30005050039007BD0000600500200148042198
:103E4000014B184780020020B52F0010014B1B6862
:103E50001847000080020020014B5B6818470000F3
:103E600080020020F8B507000D001600437C002BEF
:103E700002D0002400200CE00368110028009847BD
:103E80002DE03B7C10E0022115483B689847601C00
:103E90000134B44214DA002CF3DD2B19013B1B78FA
:103EA0000D3B5A425341DBB22A5D0A2AF0D1002B66
:103EB000EED1A042E7DA211A28183B689847E2E7DA
:103EC000B04203DA311A28183B689847002E06DD05
:103ED000AD19013D2B780D3B5A4253413B74F8BD5F
:103EE0003450001070B505000368002B16D00C4B41
:103EF0001C6805E0290004C92000FFF7B3FFE4684F
:103F0000002C09D02368002BF9D0064B1B68002B2E
:103F1000F0D0A342F3D1EDE700232B6070BDC04683
:103F2000440400204804002070B505000C000B6814
:103F3000802B05D021684B1C23606418257170BD4F
:103F40000800FFF7CFFFF5E710B582B0D0231B06BE
:103F50001C6801A9064800F0EBF8002806D1019B77
:103F6000A34203D0024800F0EBF8012002B010BDDC
:103F70009002002010B5024800F0C2F810BDC04603
:103F800090020020F0B5C64600B582B006000D00D4
:103F90001700FFF7D9FF80466B1C02D0184B1C6836
:103FA00005E0300000F07CF80500F7E7E468002C3D
:103FB00018D02368002BF9D0124B1B68002B01D0BE
:103FC000A342F3D12A0031002000FFF74BFF002F5E
:103FD000ECD06B46D91D0A230B7001222000FFF79D
:103FE00041FFE3E74346002B06D16B1E9D41E8B23B
:103FF00002B080BCB846F0BDFFF7BCFFF5E7C04695
:10400000440400204804002010B5064B1C6801E061
:104010009847E468002C03D06368002BF8D1F8E7D8
:1040200010BDC0464404002070B5050000F038F80B
:104030000400012201002800FFF7A4FFFFF7E4FFBE
:10404000200070BD70B5A2B004000E00FFF77CFF29
:1040500005008422002101A8FFF7F8FE33002200AA
:1040600001A90848FEF77EFF040001A8FFF73AFF08
:10407000FFF7CAFF002D02D1200022B070BDFFF76C
:1040800079FFF9E7293F00100FB400B583B004A908
:1040900001C90191FFF7D6FF03B008BC04B018476F
:1040A00010B583070AD00300032102E001330B425D
:1040B00005D01A78002AF9D1181A10BD0300196822
:1040C0000C4A0D4C8A188A4322420FD15968094A7A
:1040D00004338A188A43224208D15968054A0433B6
:1040E0008A188A432242F1D000E001331A78002A6C
:1040F000FBD1E1E7FFFEFEFE80808080F8B5C04680
:1041000001B40248844601BC604700BF6D01002035
:1041100001B40248844601BC604700BFB9010020D9
:1041200001B40248844601BC604700BFB9010020C9
:1041300001B40248844601BC604700BF250100204D
:1041400001B40248844601BC604700BFC1000020A2
:104150006770696F203C203330750000433A5C552E
:10416000736572735C57494E444F577E315C444FC0
:1041700043554D457E315C5069636F5C7069636F78
:104180002D73646B5C7372635C5250325F434F7E7D
:10419000315C4841393235447E315C696E636C75FF
:1041A00064652F68617264776172652F70776D2E18
:1041B00068000000736C6963655F6E756D203C205C
:1041C0003875000070776D5F6770696F5F746F5F3F
:1041D0006368616E6E656C0070776D5F7365745FA8
:1041E0006770696F5F6C6576656C00006368656316
:1041F0006B5F736C6963655F6E756D5F7061726133
:104200006D00000070776D5F6770696F5F746F5F3E
:10421000736C6963655F6E756D00000072742D3E8E
:10422000616C61726D5F6964203D3D2069640000CE
:10423000433A5C55736572735C57696E646F77734C
:104240002031305C446F63756D656E74735C5069CA
:10425000636F5C7069636F2D73646B5C7372635C16
:10426000636F6D6D6F6E5C7069636F5F74696D65B0
:104270005C74696D652E630069642026262069647C
:10428000203C3D20706F6F6C2D3E686561702D3E47
:104290006D61785F6E6F646573000000256C6C64FF
:1042A000202868692025303278290000696420269A
:1042B00026206964203C3D20686561702D3E6D615B
:1042C000785F6E6F64657300433A5C557365727313
:1042D0005C57494E444F577E315C444F43554D45E2
:1042E0007E315C5069636F5C7069636F2D73646BC2
:1042F0005C7372635C636F6D6D6F6E5C5049434FAE
:104300005F557E315C696E636C7564652F7069639F
:104310006F2F7574696C2F70686561702E6800006E
:10432000706172656E745F69640000006368696C37
:10433000645F696400000000706172656E745F699B
:104340006420213D206368696C645F69640000003B
:104350002170685F636F6E7461696E735F6E6F6406
:104360006528706F6F6C2D3E686561702C207265DA
:104370007573655F6964290075735F73696E636542
:104380005F626F6F74203C3D20494E5436345F4D60
:1043900041580000433A5C55736572735C57494E4F
:1043A000444F577E315C444F43554D457E315C5000
:1043B00069636F5C7069636F2D73646B5C737263A8
:1043C0005C636F6D6D6F6E5C5049434F5F427E3131
:1043D0005C696E636C7564652F7069636F2F7479A7
:1043E0007065732E6800000072656D6F7665645F9E
:1043F0006964203D3D206E6578745F69640000004B
:1044000063616C6C6261636B00000000706F6F6CC5
:104410002D3E616C61726D5F696E5F70726F677265
:10442000657373203D3D206D616B655F7075626CD7
:1044300069635F69642869645F686967682C206ED6
:104440006578745F696429006964202626202170DC
:10445000685F636F6E7461696E735F6E6F64652809
:10446000686561702C2069642900000064656661DC
:10447000756C745F616C61726D5F706F6F6C5F699A
:104480006E697469616C697A6564282900000000AE
:10449000726570656174696E675F74696D65725F7E
:1044A00063616C6C6261636B000000007570646135
:1044B00074655F75735F73696E63655F626F6F7458
:1044C00000000000616C61726D5F706F6F6C5F6106
:1044D0006C61726D5F63616C6C6261636B000000A4
:1044E0006765745F656E747279000000616C61725B
:1044F0006D5F706F6F6C5F6765745F646566617533
:104500006C7400006765745F656E7472795F6964CE
:104510005F6869676800000070685F667265655F64
:104520006E6F64650000000070685F6164645F63C3
:1045300068696C645F6E6F646500000070685F6935
:104540006E736572745F6E6F6465000070685F679C
:1045500065745F6E6F6465006164645F616C617255
:104560006D5F756E6465725F6C6F636B0000000059
:10457000486172647761726520616C61726D20259B
:104580006420616C726561647920636C61696D653A
:104590006400000074696D65725F68772D3E696E16
:1045A00074732026203175203C3C20616C61726D53
:1045B0005F6E756D00000000433A5C557365727361
:1045C0005C57696E646F77732031305C446F63753C
:1045D0006D656E74735C5069636F5C7069636F2D99
:1045E00073646B5C7372635C7270325F636F6D6D6A
:1045F0006F6E5C68617264776172655F74696D6526
:10460000725C74696D65722E63000000686172648B
:10461000776172655F616C61726D5F7365745F7401
:1046200061726765740000006D74782D3E636F726F
:10463000652E7370696E5F6C6F636B00433A5C55F7
:10464000736572735C57696E646F77732031305C89
:10465000446F63756D656E74735C5069636F5C70F5
:1046600069636F2D73646B5C7372635C636F6D6DF4
:104670006F6E5C7069636F5F73796E635C6D757488
:1046800065782E63000000006D74782D3E6F776EA4
:104690006572203E3D2030006D757465785F6578E9
:1046A000697400006D757465785F656E7465725F1E
:1046B000626C6F636B696E6700000000726F6F74ED
:1046C0005F696400433A5C55736572735C57696E49
:1046D000646F77732031305C446F63756D656E7401
:1046E000735C5069636F5C7069636F2D73646B5C9E
:1046F0007372635C636F6D6D6F6E5C7069636F5F27
:104700007574696C5C70686561702E6300000000F0
:104710002170685F6765745F6E6F646528686561A6
:10472000702C20726F6F745F6964292D3E7369620B
:104730006C696E67000000002170685F6765745FD8
:104740006E6F646528686561702C20726F6F745F8E
:104750006964292D3E706172656E7400666F756EB6
:10476000640000006E65775F7375625F74726565E3
:1047700020213D20686561702D3E726F6F745F6906
:104780006400000070685F72656D6F76655F616ED2
:10479000645F667265655F6E6F64650070685F7206
:1047A000656D6F76655F616E795F68656164000055
:1047B00070685F6164645F6368696C645F6E6F6496
:1047C0006500000070685F6765745F6E6F64650008
:1047D0002C2066756E6374696F6E3A2000000000CD
:1047E000617373657274696F6E202225732220666F
:1047F00061696C65643A2066696C652022257322C4
:104800002C206C696E65202564257325730A0000D1
:104810000A2A2A2A2050414E4943202A2A2A0A00DD
:104820000A0000007372635F66726571203E3D206E
:104830006672657100000000433A5C5573657273DF
:104840005C57696E646F77732031305C446F6375B9
:104850006D656E74735C5069636F5C7069636F2D16
:1048600073646B5C7372635C7270325F636F6D6DE7
:104870006F6E5C68617264776172655F636C6F63B1
:104880006B735C636C6F636B732E6300636C6F633D
:104890006B5F636F6E6669677572650066626469F7
:1048A00076203E3D203136202626206662646976D9
:1048B000203C3D2033323000433A5C5573657273BF
:1048C0005C57696E646F77732031305C446F637539
:1048D0006D656E74735C5069636F5C7069636F2D96
:1048E00073646B5C7372635C7270325F636F6D6D67
:1048F0006F6E5C68617264776172655F706C6C5C2E
:10490000706C6C2E6300000028706F73745F6469B4
:104910007631203E3D203120262620706F73745F53
:1049200064697631203C3D203729202626202870D6
:104930006F73745F64697632203E3D2031202626F5
:1049400020706F73745F64697632203C3D20372994
:1049500000000000706F73745F64697632203C3D24
:1049600020706F73745F6469763100007265665FF2
:104970006D687A203C3D202876636F5F66726571B2
:10498000202F203136290000706C6C5F696E6974CD
:1049900000000000212864656C7461203E3E2031D7
:1049A00031752900433A5C55736572735C57696EC3
:1049B000646F77732031305C446F63756D656E741E
:1049C000735C5069636F5C7069636F2D73646B5CBB
:1049D0007372635C7270325F636F6D6D6F6E5C6873
:1049E000617264776172655F6972715C6972712E60
:1049F0006300000021286E756D203E3D2033327526
:104A00002900000063757272656E74203D3D205F61
:104A10005F756E68616E646C65645F757365725F07
:104A2000697271207C7C2063757272656E74203DA2
:104A30003D2068616E646C65720000006972715F90
:104A400068616E6465725F636861696E5F667265F6
:104A5000655F736C6F745F68656164203E3D2030F4
:104A600000000000767461626C655F68616E646C62
:104A70006572203D3D205F5F756E68616E646C6598
:104A8000645F757365725F69727100002128282860
:104A90002875696E747074725F7429767461626CC3
:104AA000655F68616E646C657229202D2028287509
:104AB000696E747074725F74296972715F68616E77
:104AC000646C65725F636861696E5F736C6F747349
:104AD00029202D2031292573697A656F6628737422
:104AE00072756374206972715F68616E646C65725F
:104AF0005F636861696E5F736C6F742929000000E1
:104B000030783163203D3D20282A696E7374293E38
:104B10003E3131750000000021657863657074696D
:104B20006F6E207C7C20657863657074696F6E2081
:104B30003D3D206E756D202B2031360066616C7313
:104B40006500000069735F7368617265645F697214
:104B5000715F7261775F68616E646C657228736CF7
:104B60006F745F68616E646C657229006578636557
:104B70007074696F6E0000006972715F6164645FD8
:104B80007461696C5F746F5F667265655F6C697391
:104B900074000000696E736572745F6272616E63A7
:104BA000685F616E645F6C696E6B00006972715F53
:104BB00072656D6F76655F68616E646C657200002A
:104BC0006D616B655F6272616E6368007265736FC1
:104BD0006C76655F6272616E636800006972715F16
:104BE0007365745F6578636C75736976655F68611A
:104BF0006E646C6572000000636865636B5F697268
:104C0000715F706172616D00666E6900666E692B1E
:104C1000000000006E616E00666E692D00000000ED
:104C2000EE2900109E2900109E290010F82900107E
:104C30009E2900109E2900109E2900109E29001018
:104C40009E2900109E2900109E290010E4290010C2
:104C50009E290010DA2900109E2900109E290010BC
:104C6000D0290010902A0010B62A0010CE2A001079
:104C7000B62A0010702A0010B62A0010B62A0010BA
:104C8000B62A0010B62A0010B62A0010B62A001064
:104C9000B62A0010AC2A0010B62A0010B62A00105E
:104CA000B62A0010B62A0010B62A0010DA2A001020
:104CB0000A2F0010202F0010202F0010202F00108E
:104CC000202F0010202F0010202F0010202F001068
:104CD000202F0010202F0010202F0010202F001058
:104CE000202F0010202F0010202F0010202F001048
:104CF000202F0010202F0010202F0010202F001038
:104D0000202F0010202F0010202F0010202F001027
:104D1000202F0010202F0010202F0010202F001017
:104D2000202F0010202F0010202F0010202F001007
:104D3000322D0010F22C0010322D0010202F001008
:104D4000202F0010202F0010202F0010202F0010E7
:104D5000202F0010202F0010202F0010202F0010D7
:104D6000202F0010202F0010202F0010202F0010C7
:104D7000202F0010202F0010202F0010E62A0010F6
:104D8000202F0010202F0010202F0010202F0010A7
:104D9000202F0010202F0010202F0010202F001097
:104DA000202F0010E62A0010822D0010E62A0010A5
:104DB000322D0010F22C0010322D0010202F001088
:104DC000E62A0010202F0010202F0010202F0010A6
:104DD000202F0010202F0010E62A0010D42E0010E3
:104DE000202F0010202F0010FA2D0010202F00106F
:104DF000E62A0010202F0010202F0010E62A0010B5
:104E0000000000000000F03F00000000000024400F
:104E100000000000000059400000000000408F40EA
:104E2000000000000088C34000000000006AF84055
:104E30000000000080842E4100000000D012634179
:104E40000000000084D797410000000065CDCD41EF
:104E50002A282875696E74385F74202A2928282822
:104E6000766F6964202A29726F6D5F646174615F77
:104E70006C6F6F6B757028726F6D5F7461626C65BB
:104E80005F636F6465282753272C2027462729292D
:104E9000292D322929202A2034203E3D2053465FE7
:104EA0005441424C455F56325F53495A4500000019
:104EB000433A5C55736572735C57696E646F7773C0
:104EC0002031305C446F63756D656E74735C50693E
:104ED000636F5C7069636F2D73646B5C7372635C8A
:104EE0007270325F636F6D6D6F6E5C7069636F5F60
:104EF000646F75626C655C646F75626C655F696E2A
:104F000069745F726F6D2E63000000005F5F616502
:104F10006162695F646F75626C655F696E69740078
:104F20002A282875696E74385F74202A2928726FC0
:104F30006D5F7461626C652D322929202A2034202E
:104F40003E3D2053465F5441424C455F56325F53CD
:104F5000495A4500433A5C55736572735C57696EF4
:104F6000646F77732031305C446F63756D656E7468
:104F7000735C5069636F5C7069636F2D73646B5C05
:104F80007372635C7270325F636F6D6D6F6E5C70B5
:104F900069636F5F666C6F61745C666C6F61745F90
:104FA000696E69745F726F6D2E6300005F5F61658B
:104FB0006162695F666C6F61745F696E697400003D
:104FC0004465627567000000626F6F74325F77320C
:104FD0003871303830000000302E3100312E312E43
:104FE000310000007069636F000000006C615F6F4A
:104FF0006C615F3500000000417072203138203252
:105000003032310006005250BBFF3CB6E44F001076
:10501000060052503ABCA911D84F00100600525059
:10502000E182887FC84F001006005250D3F07542CD
:08503000C04F00100D0A000042
:10503800B4020010A80200109C02001004500010D6
:1050480090020010105000101C5000102850001042
:1050580010B50368002B1AD001230168EFF3108CF8
:1050680072B60A68002AFCD0BFF35F8F042282560A
:10507800002A12DB0268BFF35F8F002111608CF3F6
:105088001088002B00D020BF002BE6D110BD064BA6
:10509800064A1521064800F05BF8D0231B061B784A
:1050A8005BB203710023E5E728460010A446001010
:1050B8003C46001003000068EFF3108C72B60268DB
:1050C800002AFCD0BFF35F8F04229A56002A0BDB1C
:1050D800002910D00A6000201B68BFF35F8F0022F0
:1050E8001A608CF310887047D0221206127852B2D8
:1050F8001A710120F0E70020EEE7000010B5026801
:10510800EFF3108172B61368002BFCD0BFF35F8FEA
:105118000423C356002B0ADBFF23037140BF036837
:10512800BFF35F8F00221A6081F3108810BD034B14
:10513800034A4B21034800F00BF8C046884600108C
:10514800984600103C4600107047C046000000001A
:1051580001B40248844601BC604700BF1516001020
:10516800FFFF000000800000004000000020000059
:105178000010000000200000004000000080000037
:10518800100000000C02002000000000B002002007
:1051980004040020000000000000000014040020A7
:1051A80000000000000000001000000000000000E7
:1051B80000000100000000000000000000000200E4
:1051C80000000000000000000000030000000000D4
:1051D800000000000000FF000000000000B5486863
:1051E80001318E460047704609380149884700BD9D
:1051F800411D001000000000000000000000000039
:10520800503300004C330000543300005233000088
:105218004D5300004D430000533400004334000058
:1052280000000000000000003D3E0010852F001027
:0C523800753600100D3D0010ED02001056
:04000005100001E9FD
:00000001FF
